{
  "_format": "hh-sol-artifact-1",
  "contractName": "NexusVault",
  "sourceName": "contracts/NexusVault.sol",
  "abi": [
    {
      "inputs": [],
      "stateMutability": "nonpayable",
      "type": "constructor"
    },
    {
      "inputs": [
        {
          "internalType": "address",
          "name": "owner",
          "type": "address"
        }
      ],
      "name": "OwnableInvalidOwner",
      "type": "error"
    },
    {
      "inputs": [
        {
          "internalType": "address",
          "name": "account",
          "type": "address"
        }
      ],
      "name": "OwnableUnauthorizedAccount",
      "type": "error"
    },
    {
      "inputs": [],
      "name": "ReentrancyGuardReentrantCall",
      "type": "error"
    },
    {
      "anonymous": false,
      "inputs": [
        {
          "indexed": false,
          "internalType": "string",
          "name": "currency",
          "type": "string"
        },
        {
          "indexed": false,
          "internalType": "uint256",
          "name": "newAPY",
          "type": "uint256"
        }
      ],
      "name": "APYUpdated",
      "type": "event"
    },
    {
      "anonymous": false,
      "inputs": [
        {
          "indexed": true,
          "internalType": "address",
          "name": "user",
          "type": "address"
        },
        {
          "indexed": false,
          "internalType": "string",
          "name": "currency",
          "type": "string"
        },
        {
          "indexed": false,
          "internalType": "uint256",
          "name": "amount",
          "type": "uint256"
        }
      ],
      "name": "Deposited",
      "type": "event"
    },
    {
      "anonymous": false,
      "inputs": [
        {
          "indexed": true,
          "internalType": "address",
          "name": "previousOwner",
          "type": "address"
        },
        {
          "indexed": true,
          "internalType": "address",
          "name": "newOwner",
          "type": "address"
        }
      ],
      "name": "OwnershipTransferred",
      "type": "event"
    },
    {
      "anonymous": false,
      "inputs": [
        {
          "indexed": true,
          "internalType": "address",
          "name": "user",
          "type": "address"
        },
        {
          "indexed": false,
          "internalType": "string",
          "name": "currency",
          "type": "string"
        },
        {
          "indexed": false,
          "internalType": "uint256",
          "name": "amount",
          "type": "uint256"
        },
        {
          "indexed": false,
          "internalType": "uint256",
          "name": "yield",
          "type": "uint256"
        }
      ],
      "name": "Withdrawn",
      "type": "event"
    },
    {
      "inputs": [
        {
          "internalType": "address",
          "name": "user",
          "type": "address"
        },
        {
          "internalType": "string",
          "name": "currency",
          "type": "string"
        }
      ],
      "name": "calculateYield",
      "outputs": [
        {
          "internalType": "uint256",
          "name": "",
          "type": "uint256"
        }
      ],
      "stateMutability": "view",
      "type": "function"
    },
    {
      "inputs": [
        {
          "internalType": "string",
          "name": "",
          "type": "string"
        }
      ],
      "name": "currencyAPY",
      "outputs": [
        {
          "internalType": "uint256",
          "name": "",
          "type": "uint256"
        }
      ],
      "stateMutability": "view",
      "type": "function"
    },
    {
      "inputs": [
        {
          "internalType": "string",
          "name": "currency",
          "type": "string"
        },
        {
          "internalType": "uint256",
          "name": "amount",
          "type": "uint256"
        }
      ],
      "name": "deposit",
      "outputs": [],
      "stateMutability": "nonpayable",
      "type": "function"
    },
    {
      "inputs": [
        {
          "internalType": "address",
          "name": "",
          "type": "address"
        },
        {
          "internalType": "string",
          "name": "",
          "type": "string"
        }
      ],
      "name": "depositTimestamp",
      "outputs": [
        {
          "internalType": "uint256",
          "name": "",
          "type": "uint256"
        }
      ],
      "stateMutability": "view",
      "type": "function"
    },
    {
      "inputs": [
        {
          "internalType": "address",
          "name": "",
          "type": "address"
        },
        {
          "internalType": "string",
          "name": "",
          "type": "string"
        }
      ],
      "name": "deposits",
      "outputs": [
        {
          "internalType": "uint256",
          "name": "",
          "type": "uint256"
        }
      ],
      "stateMutability": "view",
      "type": "function"
    },
    {
      "inputs": [],
      "name": "getSupportedCurrencies",
      "outputs": [
        {
          "internalType": "string[]",
          "name": "",
          "type": "string[]"
        }
      ],
      "stateMutability": "view",
      "type": "function"
    },
    {
      "inputs": [],
      "name": "getTotalTVL",
      "outputs": [
        {
          "internalType": "uint256",
          "name": "",
          "type": "uint256"
        }
      ],
      "stateMutability": "view",
      "type": "function"
    },
    {
      "inputs": [
        {
          "internalType": "address",
          "name": "user",
          "type": "address"
        },
        {
          "internalType": "string",
          "name": "currency",
          "type": "string"
        }
      ],
      "name": "getUserBalance",
      "outputs": [
        {
          "internalType": "uint256",
          "name": "",
          "type": "uint256"
        }
      ],
      "stateMutability": "view",
      "type": "function"
    },
    {
      "inputs": [
        {
          "internalType": "string",
          "name": "currency",
          "type": "string"
        }
      ],
      "name": "isSupportedCurrency",
      "outputs": [
        {
          "internalType": "bool",
          "name": "",
          "type": "bool"
        }
      ],
      "stateMutability": "view",
      "type": "function"
    },
    {
      "inputs": [],
      "name": "owner",
      "outputs": [
        {
          "internalType": "address",
          "name": "",
          "type": "address"
        }
      ],
      "stateMutability": "view",
      "type": "function"
    },
    {
      "inputs": [],
      "name": "renounceOwnership",
      "outputs": [],
      "stateMutability": "nonpayable",
      "type": "function"
    },
    {
      "inputs": [
        {
          "internalType": "string",
          "name": "currency",
          "type": "string"
        },
        {
          "internalType": "uint256",
          "name": "newAPY",
          "type": "uint256"
        }
      ],
      "name": "setAPY",
      "outputs": [],
      "stateMutability": "nonpayable",
      "type": "function"
    },
    {
      "inputs": [
        {
          "internalType": "uint256",
          "name": "",
          "type": "uint256"
        }
      ],
      "name": "supportedCurrencies",
      "outputs": [
        {
          "internalType": "string",
          "name": "",
          "type": "string"
        }
      ],
      "stateMutability": "view",
      "type": "function"
    },
    {
      "inputs": [
        {
          "internalType": "string",
          "name": "",
          "type": "string"
        }
      ],
      "name": "totalDeposits",
      "outputs": [
        {
          "internalType": "uint256",
          "name": "",
          "type": "uint256"
        }
      ],
      "stateMutability": "view",
      "type": "function"
    },
    {
      "inputs": [
        {
          "internalType": "address",
          "name": "newOwner",
          "type": "address"
        }
      ],
      "name": "transferOwnership",
      "outputs": [],
      "stateMutability": "nonpayable",
      "type": "function"
    },
    {
      "inputs": [
        {
          "internalType": "string",
          "name": "currency",
          "type": "string"
        }
      ],
      "name": "withdraw",
      "outputs": [
        {
          "internalType": "uint256",
          "name": "totalAmount",
          "type": "uint256"
        }
      ],
      "stateMutability": "nonpayable",
      "type": "function"
    }
  ],
  "bytecode": "0x60806040523480156200001157600080fd5b5033806200003957604051631e4fbdf760e01b81526000600482015260240160405180910390fd5b6200004481620001c3565b5060017f9b779b17422d0df92223018b32b4d1fa46e071723d6817e2486d003becc55f00556040805160e081018252600360a082018181526226ac2760e91b60c0840152825282518084018452818152622822a760e91b6020828101919091528084019190915283518085018552828152621554d160ea1b8183015283850152835180850185528281526222aaa960e91b81830152606084015283518085019094529083526210949360ea1b9083015260808101919091526200010b906005908162000213565b506101a4600460405162000128906226ac2760e91b815260030190565b9081526040805160209281900392909201822092909255622822a760e91b81526004600380830182905283516023938190038401812061017c9055621554d160ea1b8152808201839052845190819003840181206101c290556222aaa960e91b81528082018390528451908190038401812061019090556210949360ea1b8152908101919091529151918290030190206101f490556200045b565b600080546001600160a01b038381166001600160a01b0319831681178455604051919092169283917f8be0079c531659141344cd1fd0a4f28419497f9722a3daafe3b4186f6b6457e09190a35050565b8280548282559060005260206000209081019282156200025e579160200282015b828111156200025e57825182906200024d90826200038f565b509160200191906001019062000234565b506200026c92915062000270565b5090565b808211156200026c57600062000287828262000291565b5060010162000270565b5080546200029f9062000300565b6000825580601f10620002b0575050565b601f016020900490600052602060002090810190620002d09190620002d3565b50565b5b808211156200026c5760008155600101620002d4565b634e487b7160e01b600052604160045260246000fd5b600181811c908216806200031557607f821691505b6020821081036200033657634e487b7160e01b600052602260045260246000fd5b50919050565b601f8211156200038a57600081815260208120601f850160051c81016020861015620003655750805b601f850160051c820191505b81811015620003865782815560010162000371565b5050505b505050565b81516001600160401b03811115620003ab57620003ab620002ea565b620003c381620003bc845462000300565b846200033c565b602080601f831160018114620003fb5760008415620003e25750858301515b600019600386901b1c1916600185901b17855562000386565b600085815260208120601f198616915b828110156200042c578886015182559484019460019091019084016200040b565b50858210156200044b5787850151600019600388901b60f8161c191681555b5050505050600190811b01905550565b6110a5806200046b6000396000f3fe608060405234801561001057600080fd5b50600436106101005760003560e01c80638da5cb5b11610097578063ad1340f511610066578063ad1340f514610269578063d6be783614610294578063e8827cec146102b7578063f2fde38b146102ca57600080fd5b80638da5cb5b146102085780638e27d719146102235780639409900c1461023657806397bf79351461024957600080fd5b806344f47491116100d357806344f4749114610184578063715018a6146101c05780637543b96e146101ca5780637611fc62146101f557600080fd5b80630c021ae51461010557806324674f3e146101205780632ce758631461015c57806331fb67c214610171575b600080fd5b61010d6102dd565b6040519081526020015b60405180910390f35b61010d61012e366004610c73565b6002602090815260009283526040909220815180830184018051928152908401929093019190912091525481565b61016461034d565b6040516101179190610d11565b61010d61017f366004610d73565b610426565b61010d610192366004610c73565b6001602090815260009283526040909220815180830184018051928152908401929093019190912091525481565b6101c86105e6565b005b61010d6101d8366004610d73565b805160208183018101805160048252928201919093012091525481565b6101c8610203366004610db0565b6105fa565b6000546040516001600160a01b039091168152602001610117565b6101c8610231366004610db0565b6106d1565b61010d610244366004610c73565b61084e565b61025c610257366004610df5565b610942565b6040516101179190610e0e565b61010d610277366004610d73565b805160208183018101805160038252928201919093012091525481565b6102a76102a2366004610d73565b6109ee565b6040519015158152602001610117565b61010d6102c5366004610c73565b610a5f565b6101c86102d8366004610e21565b610ab2565b60008060005b6005548110156103475760036005828154811061030257610302610e3c565b906000526020600020016040516103199190610f22565b908152602001604051809103902054826103339190610f44565b91508061033f81610f57565b9150506102e3565b50919050565b60606005805480602002602001604051908101604052809291908181526020016000905b8282101561041d57838290600052602060002001805461039090610e52565b80601f01602080910402602001604051908101604052809291908181526020018280546103bc90610e52565b80156104095780601f106103de57610100808354040283529160200191610409565b820191906000526020600020905b8154815290600101906020018083116103ec57829003601f168201915b505050505081526020019060010190610371565b50505050905090565b6000610430610af0565b610439826109ee565b61045e5760405162461bcd60e51b815260040161045590610f70565b60405180910390fd5b33600090815260016020526040808220905161047b908590610fa0565b9081526020016040518091039020549050600081116104dc5760405162461bcd60e51b815260206004820152601d60248201527f4e6f206465706f7369747320666f7220746869732063757272656e63790000006044820152606401610455565b60006104e8338561084e565b90506104f48183610f44565b3360009081526001602052604080822090519295509091610516908790610fa0565b908152604080519182900360209081018320939093553360009081526002909352822090610545908790610fa0565b908152602001604051809103902081905550816003856040516105689190610fa0565b908152602001604051809103902060008282546105859190610fbc565b909155505060405133907f16d3201706e47379cdd342723c8ecb8e1033fbbcb2bf7a46043887709c319164906105c090879086908690610fcf565b60405180910390a250506105e1600160008051602061105083398151915255565b919050565b6105ee610b0c565b6105f86000610b39565b565b610602610b0c565b61060b826109ee565b6106275760405162461bcd60e51b815260040161045590610f70565b6107d08111156106715760405162461bcd60e51b81526020600482015260156024820152744150592063616e6e6f74206578636565642032302560581b6044820152606401610455565b806004836040516106829190610fa0565b9081526020016040518091039020819055507f1c27d79e748239a4a2e3e06345e7fcb298829cd3fd89383fca90d4cd47409c2382826040516106c5929190610ff4565b60405180910390a15050565b6106d9610af0565b6106e2826109ee565b6106fe5760405162461bcd60e51b815260040161045590610f70565b6000811161074e5760405162461bcd60e51b815260206004820152601d60248201527f416d6f756e74206d7573742062652067726561746572207468616e20300000006044820152606401610455565b3360009081526001602052604090819020905182919061076f908590610fa0565b9081526020016040518091039020600082825461078c9190610f44565b9091555050336000908152600260205260409081902090514291906107b2908590610fa0565b908152602001604051809103902081905550806003836040516107d59190610fa0565b908152602001604051809103902060008282546107f29190610f44565b909155505060405133907ffd4bdef056842e4615d2a093647094c0b9bf67c63662d614d63fefd617e0add29061082b9085908590610ff4565b60405180910390a261084a600160008051602061105083398151915255565b5050565b6001600160a01b0382166000908152600160205260408082209051829190610877908590610fa0565b90815260200160405180910390205490508060000361089a57600091505061093c565b6001600160a01b03841660009081526002602052604080822090516108c0908690610fa0565b90815260405190819003602001902054905060006108de8242610fbc565b905060006004866040516108f29190610fa0565b9081526040519081900360200190205490506301e1338061091581612710611016565b836109208488611016565b61092a9190611016565b610934919061102d565b955050505050505b92915050565b6005818154811061095257600080fd5b90600052602060002001600091509050805461096d90610e52565b80601f016020809104026020016040519081016040528092919081815260200182805461099990610e52565b80156109e65780601f106109bb576101008083540402835291602001916109e6565b820191906000526020600020905b8154815290600101906020018083116109c957829003601f168201915b505050505081565b6000805b600554811015610a5657828051906020012060058281548110610a1757610a17610e3c565b90600052602060002001604051610a2e9190610f22565b604051809103902003610a445750600192915050565b80610a4e81610f57565b9150506109f2565b50600092915050565b6000610a6b838361084e565b6001600160a01b038416600090815260016020526040908190209051610a92908590610fa0565b908152602001604051809103902054610aab9190610f44565b9392505050565b610aba610b0c565b6001600160a01b038116610ae457604051631e4fbdf760e01b815260006004820152602401610455565b610aed81610b39565b50565b610af8610b89565b600260008051602061105083398151915255565b6000546001600160a01b031633146105f85760405163118cdaa760e01b8152336004820152602401610455565b600080546001600160a01b038381166001600160a01b0319831681178455604051919092169283917f8be0079c531659141344cd1fd0a4f28419497f9722a3daafe3b4186f6b6457e09190a35050565b600080516020611050833981519152546002036105f857604051633ee5aeb560e01b815260040160405180910390fd5b80356001600160a01b03811681146105e157600080fd5b634e487b7160e01b600052604160045260246000fd5b600082601f830112610bf757600080fd5b813567ffffffffffffffff80821115610c1257610c12610bd0565b604051601f8301601f19908116603f01168101908282118183101715610c3a57610c3a610bd0565b81604052838152866020858801011115610c5357600080fd5b836020870160208301376000602085830101528094505050505092915050565b60008060408385031215610c8657600080fd5b610c8f83610bb9565b9150602083013567ffffffffffffffff811115610cab57600080fd5b610cb785828601610be6565b9150509250929050565b60005b83811015610cdc578181015183820152602001610cc4565b50506000910152565b60008151808452610cfd816020860160208601610cc1565b601f01601f19169290920160200192915050565b6000602080830181845280855180835260408601915060408160051b870101925083870160005b82811015610d6657603f19888603018452610d54858351610ce5565b94509285019290850190600101610d38565b5092979650505050505050565b600060208284031215610d8557600080fd5b813567ffffffffffffffff811115610d9c57600080fd5b610da884828501610be6565b949350505050565b60008060408385031215610dc357600080fd5b823567ffffffffffffffff811115610dda57600080fd5b610de685828601610be6565b95602094909401359450505050565b600060208284031215610e0757600080fd5b5035919050565b602081526000610aab6020830184610ce5565b600060208284031215610e3357600080fd5b610aab82610bb9565b634e487b7160e01b600052603260045260246000fd5b600181811c90821680610e6657607f821691505b60208210810361034757634e487b7160e01b600052602260045260246000fd5b8054600090600181811c9080831680610ea057607f831692505b60208084108203610ec157634e487b7160e01b600052602260045260246000fd5b818015610ed55760018114610eea57610f16565b60ff1986168952841515850289019650610f16565b876000528160002060005b86811015610f0e5781548b820152908501908301610ef5565b505084890196505b50505050505092915050565b6000610aab8284610e86565b634e487b7160e01b600052601160045260246000fd5b8082018082111561093c5761093c610f2e565b600060018201610f6957610f69610f2e565b5060010190565b60208082526016908201527510dd5c9c995b98de481b9bdd081cdd5c1c1bdc9d195960521b604082015260600190565b60008251610fb2818460208701610cc1565b9190910192915050565b8181038181111561093c5761093c610f2e565b606081526000610fe26060830186610ce5565b60208301949094525060400152919050565b6040815260006110076040830185610ce5565b90508260208301529392505050565b808202811582820484141761093c5761093c610f2e565b60008261104a57634e487b7160e01b600052601260045260246000fd5b50049056fe9b779b17422d0df92223018b32b4d1fa46e071723d6817e2486d003becc55f00a26469706673582212202a7cb36181263b55992aec960dafec7015cf460216bcb4e3e465329e029a69bd64736f6c63430008140033",
  "linkReferences": {},
  "deployedLinkReferences": {}
}