{
  "_format": "hh-sol-artifact-1",
  "contractName": "NexusBridge",
  "sourceName": "contracts/NexusBridge.sol",
  "abi": [
    {
      "inputs": [],
      "stateMutability": "nonpayable",
      "type": "constructor"
    },
    {
      "inputs": [
        {
          "internalType": "address",
          "name": "owner",
          "type": "address"
        }
      ],
      "name": "OwnableInvalidOwner",
      "type": "error"
    },
    {
      "inputs": [
        {
          "internalType": "address",
          "name": "account",
          "type": "address"
        }
      ],
      "name": "OwnableUnauthorizedAccount",
      "type": "error"
    },
    {
      "inputs": [],
      "name": "ReentrancyGuardReentrantCall",
      "type": "error"
    },
    {
      "anonymous": false,
      "inputs": [
        {
          "indexed": false,
          "internalType": "string",
          "name": "fromCurrency",
          "type": "string"
        },
        {
          "indexed": false,
          "internalType": "string",
          "name": "toCurrency",
          "type": "string"
        },
        {
          "indexed": false,
          "internalType": "uint256",
          "name": "rate",
          "type": "uint256"
        }
      ],
      "name": "ExchangeRateUpdated",
      "type": "event"
    },
    {
      "anonymous": false,
      "inputs": [
        {
          "indexed": true,
          "internalType": "address",
          "name": "previousOwner",
          "type": "address"
        },
        {
          "indexed": true,
          "internalType": "address",
          "name": "newOwner",
          "type": "address"
        }
      ],
      "name": "OwnershipTransferred",
      "type": "event"
    },
    {
      "anonymous": false,
      "inputs": [
        {
          "indexed": true,
          "internalType": "address",
          "name": "user",
          "type": "address"
        },
        {
          "indexed": false,
          "internalType": "string",
          "name": "fromCurrency",
          "type": "string"
        },
        {
          "indexed": false,
          "internalType": "string",
          "name": "toCurrency",
          "type": "string"
        },
        {
          "indexed": false,
          "internalType": "uint256",
          "name": "fromAmount",
          "type": "uint256"
        },
        {
          "indexed": false,
          "internalType": "uint256",
          "name": "toAmount",
          "type": "uint256"
        },
        {
          "indexed": false,
          "internalType": "uint256",
          "name": "fee",
          "type": "uint256"
        },
        {
          "indexed": false,
          "internalType": "uint256",
          "name": "yield",
          "type": "uint256"
        }
      ],
      "name": "SwapExecuted",
      "type": "event"
    },
    {
      "anonymous": false,
      "inputs": [
        {
          "indexed": false,
          "internalType": "string",
          "name": "currency",
          "type": "string"
        },
        {
          "indexed": false,
          "internalType": "address",
          "name": "tokenAddress",
          "type": "address"
        }
      ],
      "name": "TokenRegistered",
      "type": "event"
    },
    {
      "anonymous": false,
      "inputs": [
        {
          "indexed": true,
          "internalType": "address",
          "name": "user",
          "type": "address"
        },
        {
          "indexed": false,
          "internalType": "uint256",
          "name": "amount",
          "type": "uint256"
        }
      ],
      "name": "YieldDistributed",
      "type": "event"
    },
    {
      "inputs": [],
      "name": "FEE_DENOMINATOR",
      "outputs": [
        {
          "internalType": "uint256",
          "name": "",
          "type": "uint256"
        }
      ],
      "stateMutability": "view",
      "type": "function"
    },
    {
      "inputs": [
        {
          "internalType": "uint256",
          "name": "amount",
          "type": "uint256"
        }
      ],
      "name": "addToYieldPool",
      "outputs": [],
      "stateMutability": "nonpayable",
      "type": "function"
    },
    {
      "inputs": [
        {
          "internalType": "uint256",
          "name": "amount",
          "type": "uint256"
        }
      ],
      "name": "calculateYield",
      "outputs": [
        {
          "internalType": "uint256",
          "name": "",
          "type": "uint256"
        }
      ],
      "stateMutability": "view",
      "type": "function"
    },
    {
      "inputs": [
        {
          "internalType": "string",
          "name": "",
          "type": "string"
        }
      ],
      "name": "currencyTokens",
      "outputs": [
        {
          "internalType": "address",
          "name": "",
          "type": "address"
        }
      ],
      "stateMutability": "view",
      "type": "function"
    },
    {
      "inputs": [
        {
          "internalType": "string",
          "name": "",
          "type": "string"
        },
        {
          "internalType": "string",
          "name": "",
          "type": "string"
        }
      ],
      "name": "exchangeRates",
      "outputs": [
        {
          "internalType": "uint256",
          "name": "",
          "type": "uint256"
        }
      ],
      "stateMutability": "view",
      "type": "function"
    },
    {
      "inputs": [
        {
          "internalType": "string",
          "name": "fromCurrency",
          "type": "string"
        },
        {
          "internalType": "string",
          "name": "toCurrency",
          "type": "string"
        }
      ],
      "name": "getRate",
      "outputs": [
        {
          "internalType": "uint256",
          "name": "",
          "type": "uint256"
        }
      ],
      "stateMutability": "view",
      "type": "function"
    },
    {
      "inputs": [],
      "name": "owner",
      "outputs": [
        {
          "internalType": "address",
          "name": "",
          "type": "address"
        }
      ],
      "stateMutability": "view",
      "type": "function"
    },
    {
      "inputs": [],
      "name": "protocolFee",
      "outputs": [
        {
          "internalType": "uint256",
          "name": "",
          "type": "uint256"
        }
      ],
      "stateMutability": "view",
      "type": "function"
    },
    {
      "inputs": [
        {
          "internalType": "string",
          "name": "currencyCode",
          "type": "string"
        },
        {
          "internalType": "address",
          "name": "tokenAddress",
          "type": "address"
        }
      ],
      "name": "registerToken",
      "outputs": [],
      "stateMutability": "nonpayable",
      "type": "function"
    },
    {
      "inputs": [],
      "name": "renounceOwnership",
      "outputs": [],
      "stateMutability": "nonpayable",
      "type": "function"
    },
    {
      "inputs": [
        {
          "internalType": "string",
          "name": "fromCurrency",
          "type": "string"
        },
        {
          "internalType": "string",
          "name": "toCurrency",
          "type": "string"
        },
        {
          "internalType": "uint256",
          "name": "rate",
          "type": "uint256"
        }
      ],
      "name": "setExchangeRate",
      "outputs": [],
      "stateMutability": "nonpayable",
      "type": "function"
    },
    {
      "inputs": [
        {
          "internalType": "uint256",
          "name": "newFee",
          "type": "uint256"
        }
      ],
      "name": "setProtocolFee",
      "outputs": [],
      "stateMutability": "nonpayable",
      "type": "function"
    },
    {
      "inputs": [
        {
          "internalType": "uint256",
          "name": "newAPY",
          "type": "uint256"
        }
      ],
      "name": "setYieldAPY",
      "outputs": [],
      "stateMutability": "nonpayable",
      "type": "function"
    },
    {
      "inputs": [
        {
          "internalType": "string",
          "name": "fromCurrency",
          "type": "string"
        },
        {
          "internalType": "string",
          "name": "toCurrency",
          "type": "string"
        },
        {
          "internalType": "uint256",
          "name": "amount",
          "type": "uint256"
        }
      ],
      "name": "swap",
      "outputs": [
        {
          "internalType": "uint256",
          "name": "toAmount",
          "type": "uint256"
        },
        {
          "internalType": "uint256",
          "name": "yieldEarned",
          "type": "uint256"
        }
      ],
      "stateMutability": "nonpayable",
      "type": "function"
    },
    {
      "inputs": [
        {
          "internalType": "address",
          "name": "",
          "type": "address"
        }
      ],
      "name": "tokenCurrencies",
      "outputs": [
        {
          "internalType": "string",
          "name": "",
          "type": "string"
        }
      ],
      "stateMutability": "view",
      "type": "function"
    },
    {
      "inputs": [
        {
          "internalType": "address",
          "name": "newOwner",
          "type": "address"
        }
      ],
      "name": "transferOwnership",
      "outputs": [],
      "stateMutability": "nonpayable",
      "type": "function"
    },
    {
      "inputs": [],
      "name": "yieldAPY",
      "outputs": [
        {
          "internalType": "uint256",
          "name": "",
          "type": "uint256"
        }
      ],
      "stateMutability": "view",
      "type": "function"
    },
    {
      "inputs": [],
      "name": "yieldPoolBalance",
      "outputs": [
        {
          "internalType": "uint256",
          "name": "",
          "type": "uint256"
        }
      ],
      "stateMutability": "view",
      "type": "function"
    }
  ],
  "bytecode": "0x6080604052603260045561019060065534801561001b57600080fd5b5060017f9b779b17422d0df92223018b32b4d1fa46e071723d6817e2486d003becc55f0055338061006657604051631e4fbdf760e01b81526000600482015260240160405180910390fd5b61006f81610075565b506100c5565b600080546001600160a01b038381166001600160a01b0319831681178455604051919092169283917f8be0079c531659141344cd1fd0a4f28419497f9722a3daafe3b4186f6b6457e09190a35050565b6112e8806100d46000396000f3fe608060405234801561001057600080fd5b50600436106101165760003560e01c806380a3301b116100a2578063b0e21e8a11610071578063b0e21e8a14610296578063c2008bab1461029f578063d73792a9146102b2578063e3f2804f146102bb578063f2fde38b146102ce57600080fd5b806380a3301b1461022a57806386bcd7951461023d5780638da5cb5b1461025d578063a451f6021461026e57600080fd5b806369953107116100e957806369953107146101ea57806369f667ed146101f3578063715018a61461020657806377b1137e1461020e578063787dce3d1461021757600080fd5b8063049b266a1461011b57806310cf55c2146101305780632ce937061461018157806362860a2b14610194575b600080fd5b61012e610129366004610dfd565b6102e1565b005b61016461013e366004610e6a565b80516020818301810180516001825292820191909301209152546001600160a01b031681565b6040516001600160a01b0390911681526020015b60405180910390f35b61012e61018f366004610e9f565b61046f565b6101dc6101a2366004610eb8565b8151602081840181018051600382529282019482019490942091909352815180830184018051928152908401929093019190912091525481565b604051908152602001610178565b6101dc60065481565b61012e610201366004610f38565b610489565b61012e6105f2565b6101dc60055481565b61012e610225366004610e9f565b610606565b6101dc610238366004610e9f565b61065c565b61025061024b366004610f86565b61069c565b6040516101789190610ff8565b6000546001600160a01b0316610164565b61028161027c366004610dfd565b610736565b60408051928352602083019190915201610178565b6101dc60045481565b61012e6102ad366004610e9f565b610b92565b6101dc61271081565b6101dc6102c9366004610eb8565b610be9565b61012e6102dc366004610f86565b610c2f565b6102e9610c6d565b60006001600160a01b0316600184604051610304919061100b565b908152604051908190036020019020546001600160a01b03160361036f5760405162461bcd60e51b815260206004820152601c60248201527f46726f6d2063757272656e6379206e6f7420726567697374657265640000000060448201526064015b60405180910390fd5b60006001600160a01b031660018360405161038a919061100b565b908152604051908190036020019020546001600160a01b0316036103f05760405162461bcd60e51b815260206004820152601a60248201527f546f2063757272656e6379206e6f7420726567697374657265640000000000006044820152606401610366565b80600384604051610401919061100b565b90815260200160405180910390208360405161041d919061100b565b9081526020016040518091039020819055507f845c0503e55ce7a792ea5809c6373a1f366872d05933d0cdd1cf4570b32eb4b383838360405161046293929190611027565b60405180910390a1505050565b80600560008282546104819190611073565b909155505050565b610491610c6d565b60006001600160a01b03166001836040516104ac919061100b565b908152604051908190036020019020546001600160a01b0316146105125760405162461bcd60e51b815260206004820152601b60248201527f43757272656e637920616c7265616479207265676973746572656400000000006044820152606401610366565b6001600160a01b0381166105605760405162461bcd60e51b8152602060048201526015602482015274496e76616c696420746f6b656e206164647265737360581b6044820152606401610366565b80600183604051610571919061100b565b908152604080516020928190038301902080546001600160a01b0319166001600160a01b0394851617905591831660009081526002909152206105b4838261110f565b507f0fd4145e0bd1305ef15c2adcf308e601b33f5ccd4d010ae8270aa596a6b2d59482826040516105e69291906111cf565b60405180910390a15050565b6105fa610c6d565b6106046000610c9a565b565b61060e610c6d565b6101f48111156106575760405162461bcd60e51b81526020600482015260146024820152734665652063616e6e6f742065786365656420352560601b6044820152606401610366565b600455565b60006301e133806003610671826127106111f9565b816006548661068091906111f9565b61068a91906111f9565b6106949190611210565b949350505050565b600260205260009081526040902080546106b590611086565b80601f01602080910402602001604051908101604052809291908181526020018280546106e190611086565b801561072e5780601f106107035761010080835404028352916020019161072e565b820191906000526020600020905b81548152906001019060200180831161071157829003601f168201915b505050505081565b600080610741610cea565b60006001600160a01b031660018660405161075c919061100b565b908152604051908190036020019020546001600160a01b0316036107c25760405162461bcd60e51b815260206004820152601b60248201527f46726f6d2063757272656e6379206e6f7420737570706f7274656400000000006044820152606401610366565b60006001600160a01b03166001856040516107dd919061100b565b908152604051908190036020019020546001600160a01b0316036108435760405162461bcd60e51b815260206004820152601960248201527f546f2063757272656e6379206e6f7420737570706f72746564000000000000006044820152606401610366565b600083116108935760405162461bcd60e51b815260206004820152601d60248201527f416d6f756e74206d7573742062652067726561746572207468616e20300000006044820152606401610366565b60006001866040516108a5919061100b565b908152604051908190036020018120546001600160a01b031691506000906001906108d190889061100b565b908152604051908190036020018120546323b872dd60e01b8252336004830152306024830152604482018790526001600160a01b0390811692508316906323b872dd906064016020604051808303816000875af1158015610936573d6000803e3d6000fd5b505050506040513d601f19601f8201168201806040525081019061095a9190611232565b50600060038860405161096d919061100b565b908152602001604051809103902087604051610989919061100b565b9081526020016040518091039020549050600081116109e25760405162461bcd60e51b8152602060048201526015602482015274115e18da185b99d9481c985d19481b9bdd081cd95d605a1b6044820152606401610366565b6000612710600454886109f591906111f9565b6109ff9190611210565b90506000610a0d8289611254565b90506305f5e100610a1e84836111f9565b610a289190611210565b9650610a338161065c565b95506001600160a01b0384166340c10f1933610a4f898b611073565b6040516001600160e01b031960e085901b1681526001600160a01b0390921660048301526024820152604401600060405180830381600087803b158015610a9557600080fd5b505af1158015610aa9573d6000803e3d6000fd5b50505050600086118015610abf57508560055410155b15610b11578560056000828254610ad69190611254565b909155505060405186815233907f9d315883dbfe38532083c1e42c0d10fbf89ad1cabaa0c269f78b3beb892c101d9060200160405180910390a25b336001600160a01b03167fa6d374d23a85a9d2cb95868c7bb693e36daab13463d28df8fc28cd2b02a5b8538b8b8b8b878c604051610b5496959493929190611267565b60405180910390a25050505050610b8a60017f9b779b17422d0df92223018b32b4d1fa46e071723d6817e2486d003becc55f0055565b935093915050565b610b9a610c6d565b6107d0811115610be45760405162461bcd60e51b81526020600482015260156024820152744150592063616e6e6f74206578636565642032302560581b6044820152606401610366565b600655565b6000600383604051610bfb919061100b565b908152602001604051809103902082604051610c17919061100b565b90815260200160405180910390205490505b92915050565b610c37610c6d565b6001600160a01b038116610c6157604051631e4fbdf760e01b815260006004820152602401610366565b610c6a81610c9a565b50565b6000546001600160a01b031633146106045760405163118cdaa760e01b8152336004820152602401610366565b600080546001600160a01b038381166001600160a01b0319831681178455604051919092169283917f8be0079c531659141344cd1fd0a4f28419497f9722a3daafe3b4186f6b6457e09190a35050565b610cf2610d18565b60027f9b779b17422d0df92223018b32b4d1fa46e071723d6817e2486d003becc55f0055565b7f9b779b17422d0df92223018b32b4d1fa46e071723d6817e2486d003becc55f005460020361060457604051633ee5aeb560e01b815260040160405180910390fd5b634e487b7160e01b600052604160045260246000fd5b600082601f830112610d8157600080fd5b813567ffffffffffffffff80821115610d9c57610d9c610d5a565b604051601f8301601f19908116603f01168101908282118183101715610dc457610dc4610d5a565b81604052838152866020858801011115610ddd57600080fd5b836020870160208301376000602085830101528094505050505092915050565b600080600060608486031215610e1257600080fd5b833567ffffffffffffffff80821115610e2a57600080fd5b610e3687838801610d70565b94506020860135915080821115610e4c57600080fd5b50610e5986828701610d70565b925050604084013590509250925092565b600060208284031215610e7c57600080fd5b813567ffffffffffffffff811115610e9357600080fd5b61069484828501610d70565b600060208284031215610eb157600080fd5b5035919050565b60008060408385031215610ecb57600080fd5b823567ffffffffffffffff80821115610ee357600080fd5b610eef86838701610d70565b93506020850135915080821115610f0557600080fd5b50610f1285828601610d70565b9150509250929050565b80356001600160a01b0381168114610f3357600080fd5b919050565b60008060408385031215610f4b57600080fd5b823567ffffffffffffffff811115610f6257600080fd5b610f6e85828601610d70565b925050610f7d60208401610f1c565b90509250929050565b600060208284031215610f9857600080fd5b610fa182610f1c565b9392505050565b60005b83811015610fc3578181015183820152602001610fab565b50506000910152565b60008151808452610fe4816020860160208601610fa8565b601f01601f19169290920160200192915050565b602081526000610fa16020830184610fcc565b6000825161101d818460208701610fa8565b9190910192915050565b60608152600061103a6060830186610fcc565b828103602084015261104c8186610fcc565b915050826040830152949350505050565b634e487b7160e01b600052601160045260246000fd5b80820180821115610c2957610c2961105d565b600181811c9082168061109a57607f821691505b6020821081036110ba57634e487b7160e01b600052602260045260246000fd5b50919050565b601f82111561110a57600081815260208120601f850160051c810160208610156110e75750805b601f850160051c820191505b81811015611106578281556001016110f3565b5050505b505050565b815167ffffffffffffffff81111561112957611129610d5a565b61113d816111378454611086565b846110c0565b602080601f831160018114611172576000841561115a5750858301515b600019600386901b1c1916600185901b178555611106565b600085815260208120601f198616915b828110156111a157888601518255948401946001909101908401611182565b50858210156111bf5787850151600019600388901b60f8161c191681555b5050505050600190811b01905550565b6040815260006111e26040830185610fcc565b905060018060a01b03831660208301529392505050565b8082028115828204841417610c2957610c2961105d565b60008261122d57634e487b7160e01b600052601260045260246000fd5b500490565b60006020828403121561124457600080fd5b81518015158114610fa157600080fd5b81810381811115610c2957610c2961105d565b60c08152600061127a60c0830189610fcc565b828103602084015261128c8189610fcc565b9150508560408301528460608301528360808301528260a083015297965050505050505056fea2646970667358221220c81ffe160a68dec4068850ed8e6e4c1a97b4ef3f94daed55e5c6de516a787b4f64736f6c63430008140033",
  "linkReferences": {},
  "deployedLinkReferences": {}
}