{
  "_format": "hh-sol-artifact-1",
  "contractName": "NexusToken",
  "sourceName": "contracts/NexusToken.sol",
  "abi": [
    {
      "inputs": [
        {
          "internalType": "string",
          "name": "_name",
          "type": "string"
        },
        {
          "internalType": "string",
          "name": "_symbol",
          "type": "string"
        },
        {
          "internalType": "string",
          "name": "_currencyCode",
          "type": "string"
        }
      ],
      "stateMutability": "nonpayable",
      "type": "constructor"
    },
    {
      "inputs": [
        {
          "internalType": "address",
          "name": "spender",
          "type": "address"
        },
        {
          "internalType": "uint256",
          "name": "allowance",
          "type": "uint256"
        },
        {
          "internalType": "uint256",
          "name": "needed",
          "type": "uint256"
        }
      ],
      "name": "ERC20InsufficientAllowance",
      "type": "error"
    },
    {
      "inputs": [
        {
          "internalType": "address",
          "name": "sender",
          "type": "address"
        },
        {
          "internalType": "uint256",
          "name": "balance",
          "type": "uint256"
        },
        {
          "internalType": "uint256",
          "name": "needed",
          "type": "uint256"
        }
      ],
      "name": "ERC20InsufficientBalance",
      "type": "error"
    },
    {
      "inputs": [
        {
          "internalType": "address",
          "name": "approver",
          "type": "address"
        }
      ],
      "name": "ERC20InvalidApprover",
      "type": "error"
    },
    {
      "inputs": [
        {
          "internalType": "address",
          "name": "receiver",
          "type": "address"
        }
      ],
      "name": "ERC20InvalidReceiver",
      "type": "error"
    },
    {
      "inputs": [
        {
          "internalType": "address",
          "name": "sender",
          "type": "address"
        }
      ],
      "name": "ERC20InvalidSender",
      "type": "error"
    },
    {
      "inputs": [
        {
          "internalType": "address",
          "name": "spender",
          "type": "address"
        }
      ],
      "name": "ERC20InvalidSpender",
      "type": "error"
    },
    {
      "inputs": [
        {
          "internalType": "address",
          "name": "owner",
          "type": "address"
        }
      ],
      "name": "OwnableInvalidOwner",
      "type": "error"
    },
    {
      "inputs": [
        {
          "internalType": "address",
          "name": "account",
          "type": "address"
        }
      ],
      "name": "OwnableUnauthorizedAccount",
      "type": "error"
    },
    {
      "anonymous": false,
      "inputs": [
        {
          "indexed": true,
          "internalType": "address",
          "name": "owner",
          "type": "address"
        },
        {
          "indexed": true,
          "internalType": "address",
          "name": "spender",
          "type": "address"
        },
        {
          "indexed": false,
          "internalType": "uint256",
          "name": "value",
          "type": "uint256"
        }
      ],
      "name": "Approval",
      "type": "event"
    },
    {
      "anonymous": false,
      "inputs": [
        {
          "indexed": false,
          "internalType": "uint256",
          "name": "newRatio",
          "type": "uint256"
        }
      ],
      "name": "BackingUpdated",
      "type": "event"
    },
    {
      "anonymous": false,
      "inputs": [
        {
          "indexed": true,
          "internalType": "address",
          "name": "from",
          "type": "address"
        },
        {
          "indexed": false,
          "internalType": "uint256",
          "name": "amount",
          "type": "uint256"
        }
      ],
      "name": "Burned",
      "type": "event"
    },
    {
      "anonymous": false,
      "inputs": [
        {
          "indexed": true,
          "internalType": "address",
          "name": "to",
          "type": "address"
        },
        {
          "indexed": false,
          "internalType": "uint256",
          "name": "amount",
          "type": "uint256"
        }
      ],
      "name": "Minted",
      "type": "event"
    },
    {
      "anonymous": false,
      "inputs": [
        {
          "indexed": true,
          "internalType": "address",
          "name": "previousOwner",
          "type": "address"
        },
        {
          "indexed": true,
          "internalType": "address",
          "name": "newOwner",
          "type": "address"
        }
      ],
      "name": "OwnershipTransferred",
      "type": "event"
    },
    {
      "anonymous": false,
      "inputs": [
        {
          "indexed": true,
          "internalType": "address",
          "name": "from",
          "type": "address"
        },
        {
          "indexed": true,
          "internalType": "address",
          "name": "to",
          "type": "address"
        },
        {
          "indexed": false,
          "internalType": "uint256",
          "name": "value",
          "type": "uint256"
        }
      ],
      "name": "Transfer",
      "type": "event"
    },
    {
      "inputs": [
        {
          "internalType": "address",
          "name": "owner",
          "type": "address"
        },
        {
          "internalType": "address",
          "name": "spender",
          "type": "address"
        }
      ],
      "name": "allowance",
      "outputs": [
        {
          "internalType": "uint256",
          "name": "",
          "type": "uint256"
        }
      ],
      "stateMutability": "view",
      "type": "function"
    },
    {
      "inputs": [
        {
          "internalType": "address",
          "name": "spender",
          "type": "address"
        },
        {
          "internalType": "uint256",
          "name": "value",
          "type": "uint256"
        }
      ],
      "name": "approve",
      "outputs": [
        {
          "internalType": "bool",
          "name": "",
          "type": "bool"
        }
      ],
      "stateMutability": "nonpayable",
      "type": "function"
    },
    {
      "inputs": [],
      "name": "backingRatio",
      "outputs": [
        {
          "internalType": "uint256",
          "name": "",
          "type": "uint256"
        }
      ],
      "stateMutability": "view",
      "type": "function"
    },
    {
      "inputs": [
        {
          "internalType": "address",
          "name": "account",
          "type": "address"
        }
      ],
      "name": "balanceOf",
      "outputs": [
        {
          "internalType": "uint256",
          "name": "",
          "type": "uint256"
        }
      ],
      "stateMutability": "view",
      "type": "function"
    },
    {
      "inputs": [
        {
          "internalType": "address",
          "name": "from",
          "type": "address"
        },
        {
          "internalType": "uint256",
          "name": "amount",
          "type": "uint256"
        }
      ],
      "name": "burn",
      "outputs": [],
      "stateMutability": "nonpayable",
      "type": "function"
    },
    {
      "inputs": [],
      "name": "currencyCode",
      "outputs": [
        {
          "internalType": "string",
          "name": "",
          "type": "string"
        }
      ],
      "stateMutability": "view",
      "type": "function"
    },
    {
      "inputs": [],
      "name": "decimals",
      "outputs": [
        {
          "internalType": "uint8",
          "name": "",
          "type": "uint8"
        }
      ],
      "stateMutability": "view",
      "type": "function"
    },
    {
      "inputs": [
        {
          "internalType": "address",
          "name": "to",
          "type": "address"
        },
        {
          "internalType": "uint256",
          "name": "amount",
          "type": "uint256"
        }
      ],
      "name": "mint",
      "outputs": [],
      "stateMutability": "nonpayable",
      "type": "function"
    },
    {
      "inputs": [],
      "name": "name",
      "outputs": [
        {
          "internalType": "string",
          "name": "",
          "type": "string"
        }
      ],
      "stateMutability": "view",
      "type": "function"
    },
    {
      "inputs": [],
      "name": "owner",
      "outputs": [
        {
          "internalType": "address",
          "name": "",
          "type": "address"
        }
      ],
      "stateMutability": "view",
      "type": "function"
    },
    {
      "inputs": [],
      "name": "renounceOwnership",
      "outputs": [],
      "stateMutability": "nonpayable",
      "type": "function"
    },
    {
      "inputs": [],
      "name": "symbol",
      "outputs": [
        {
          "internalType": "string",
          "name": "",
          "type": "string"
        }
      ],
      "stateMutability": "view",
      "type": "function"
    },
    {
      "inputs": [],
      "name": "totalSupply",
      "outputs": [
        {
          "internalType": "uint256",
          "name": "",
          "type": "uint256"
        }
      ],
      "stateMutability": "view",
      "type": "function"
    },
    {
      "inputs": [
        {
          "internalType": "address",
          "name": "to",
          "type": "address"
        },
        {
          "internalType": "uint256",
          "name": "value",
          "type": "uint256"
        }
      ],
      "name": "transfer",
      "outputs": [
        {
          "internalType": "bool",
          "name": "",
          "type": "bool"
        }
      ],
      "stateMutability": "nonpayable",
      "type": "function"
    },
    {
      "inputs": [
        {
          "internalType": "address",
          "name": "from",
          "type": "address"
        },
        {
          "internalType": "address",
          "name": "to",
          "type": "address"
        },
        {
          "internalType": "uint256",
          "name": "value",
          "type": "uint256"
        }
      ],
      "name": "transferFrom",
      "outputs": [
        {
          "internalType": "bool",
          "name": "",
          "type": "bool"
        }
      ],
      "stateMutability": "nonpayable",
      "type": "function"
    },
    {
      "inputs": [
        {
          "internalType": "address",
          "name": "newOwner",
          "type": "address"
        }
      ],
      "name": "transferOwnership",
      "outputs": [],
      "stateMutability": "nonpayable",
      "type": "function"
    },
    {
      "inputs": [
        {
          "internalType": "uint256",
          "name": "newRatio",
          "type": "uint256"
        }
      ],
      "name": "updateBackingRatio",
      "outputs": [],
      "stateMutability": "nonpayable",
      "type": "function"
    }
  ],
  "bytecode": "0x60806040523480156200001157600080fd5b5060405162000f0538038062000f058339810160408190526200003491620001c7565b3383836003620000458382620002e7565b506004620000548282620002e7565b5050506001600160a01b0381166200008657604051631e4fbdf760e01b81526000600482015260240160405180910390fd5b6200009181620000b0565b506006620000a08282620002e7565b5050606460075550620003b39050565b600580546001600160a01b038381166001600160a01b0319831681179093556040519116919082907f8be0079c531659141344cd1fd0a4f28419497f9722a3daafe3b4186f6b6457e090600090a35050565b634e487b7160e01b600052604160045260246000fd5b600082601f8301126200012a57600080fd5b81516001600160401b038082111562000147576200014762000102565b604051601f8301601f19908116603f0116810190828211818310171562000172576200017262000102565b816040528381526020925086838588010111156200018f57600080fd5b600091505b83821015620001b3578582018301518183018401529082019062000194565b600093810190920192909252949350505050565b600080600060608486031215620001dd57600080fd5b83516001600160401b0380821115620001f557600080fd5b620002038783880162000118565b945060208601519150808211156200021a57600080fd5b620002288783880162000118565b935060408601519150808211156200023f57600080fd5b506200024e8682870162000118565b9150509250925092565b600181811c908216806200026d57607f821691505b6020821081036200028e57634e487b7160e01b600052602260045260246000fd5b50919050565b601f821115620002e257600081815260208120601f850160051c81016020861015620002bd5750805b601f850160051c820191505b81811015620002de57828155600101620002c9565b5050505b505050565b81516001600160401b0381111562000303576200030362000102565b6200031b8162000314845462000258565b8462000294565b602080601f8311600181146200035357600084156200033a5750858301515b600019600386901b1c1916600185901b178555620002de565b600085815260208120601f198616915b82811015620003845788860151825594840194600190910190840162000363565b5085821015620003a35787850151600019600388901b60f8161c191681555b5050505050600190811b01905550565b610b4280620003c36000396000f3fe608060405234801561001057600080fd5b506004361061010b5760003560e01c80638da5cb5b116100a2578063bc49fc2a11610071578063bc49fc2a14610214578063c7c463fc14610227578063dd62ed3e14610230578063e102e5e314610269578063f2fde38b1461027157600080fd5b80638da5cb5b146101cb57806395d89b41146101e65780639dc29fac146101ee578063a9059cbb1461020157600080fd5b8063313ce567116100de578063313ce5671461017657806340c10f191461018557806370a082311461019a578063715018a6146101c357600080fd5b806306fdde0314610110578063095ea7b31461012e57806318160ddd1461015157806323b872dd14610163575b600080fd5b610118610284565b6040516101259190610973565b60405180910390f35b61014161013c3660046109dd565b610316565b6040519015158152602001610125565b6002545b604051908152602001610125565b610141610171366004610a07565b610330565b60405160088152602001610125565b6101986101933660046109dd565b610354565b005b6101556101a8366004610a43565b6001600160a01b031660009081526020819052604090205490565b6101986103ad565b6005546040516001600160a01b039091168152602001610125565b6101186103c1565b6101986101fc3660046109dd565b6103d0565b61014161020f3660046109dd565b61041d565b610198610222366004610a65565b61042b565b61015560075481565b61015561023e366004610a7e565b6001600160a01b03918216600090815260016020908152604080832093909416825291909152205490565b6101186104c9565b61019861027f366004610a43565b610557565b60606003805461029390610ab1565b80601f01602080910402602001604051908101604052809291908181526020018280546102bf90610ab1565b801561030c5780601f106102e15761010080835404028352916020019161030c565b820191906000526020600020905b8154815290600101906020018083116102ef57829003601f168201915b5050505050905090565b600033610324818585610595565b60019150505b92915050565b60003361033e8582856105a7565b610349858585610626565b506001949350505050565b61035c610685565b61036682826106b2565b816001600160a01b03167f30385c845b448a36257a6a1716e6ad2e1bc2cbe333cde1e69fe849ad6511adfe826040516103a191815260200190565b60405180910390a25050565b6103b5610685565b6103bf60006106ec565b565b60606004805461029390610ab1565b6103d8610685565b6103e2828261073e565b816001600160a01b03167f696de425f79f4a40bc6d2122ca50507f0efbeabbff86a84871b7196ab8ea8df7826040516103a191815260200190565b600033610324818585610626565b610433610685565b60508110158015610445575060788111155b61048e5760405162461bcd60e51b8152602060048201526015602482015274496e76616c6964206261636b696e6720726174696f60581b60448201526064015b60405180910390fd5b60078190556040518181527f3eae39ead01708e522131855e14b58995c4bee557e6efbc1fe7ec599ec69ee269060200160405180910390a150565b600680546104d690610ab1565b80601f016020809104026020016040519081016040528092919081815260200182805461050290610ab1565b801561054f5780601f106105245761010080835404028352916020019161054f565b820191906000526020600020905b81548152906001019060200180831161053257829003601f168201915b505050505081565b61055f610685565b6001600160a01b03811661058957604051631e4fbdf760e01b815260006004820152602401610485565b610592816106ec565b50565b6105a28383836001610774565b505050565b6001600160a01b03838116600090815260016020908152604080832093861683529290522054600019811015610620578181101561061157604051637dc7a0d960e11b81526001600160a01b03841660048201526024810182905260448101839052606401610485565b61062084848484036000610774565b50505050565b6001600160a01b03831661065057604051634b637e8f60e11b815260006004820152602401610485565b6001600160a01b03821661067a5760405163ec442f0560e01b815260006004820152602401610485565b6105a2838383610849565b6005546001600160a01b031633146103bf5760405163118cdaa760e01b8152336004820152602401610485565b6001600160a01b0382166106dc5760405163ec442f0560e01b815260006004820152602401610485565b6106e860008383610849565b5050565b600580546001600160a01b038381166001600160a01b0319831681179093556040519116919082907f8be0079c531659141344cd1fd0a4f28419497f9722a3daafe3b4186f6b6457e090600090a35050565b6001600160a01b03821661076857604051634b637e8f60e11b815260006004820152602401610485565b6106e882600083610849565b6001600160a01b03841661079e5760405163e602df0560e01b815260006004820152602401610485565b6001600160a01b0383166107c857604051634a1406b160e11b815260006004820152602401610485565b6001600160a01b038085166000908152600160209081526040808320938716835292905220829055801561062057826001600160a01b0316846001600160a01b03167f8c5be1e5ebec7d5bd14f71427d1e84f3dd0314c0f7b2291e5b200ac8c7c3b9258460405161083b91815260200190565b60405180910390a350505050565b6001600160a01b0383166108745780600260008282546108699190610aeb565b909155506108e69050565b6001600160a01b038316600090815260208190526040902054818110156108c75760405163391434e360e21b81526001600160a01b03851660048201526024810182905260448101839052606401610485565b6001600160a01b03841660009081526020819052604090209082900390555b6001600160a01b03821661090257600280548290039055610921565b6001600160a01b03821660009081526020819052604090208054820190555b816001600160a01b0316836001600160a01b03167fddf252ad1be2c89b69c2b068fc378daa952ba7f163c4a11628f55a4df523b3ef8360405161096691815260200190565b60405180910390a3505050565b600060208083528351808285015260005b818110156109a057858101830151858201604001528201610984565b506000604082860101526040601f19601f8301168501019250505092915050565b80356001600160a01b03811681146109d857600080fd5b919050565b600080604083850312156109f057600080fd5b6109f9836109c1565b946020939093013593505050565b600080600060608486031215610a1c57600080fd5b610a25846109c1565b9250610a33602085016109c1565b9150604084013590509250925092565b600060208284031215610a5557600080fd5b610a5e826109c1565b9392505050565b600060208284031215610a7757600080fd5b5035919050565b60008060408385031215610a9157600080fd5b610a9a836109c1565b9150610aa8602084016109c1565b90509250929050565b600181811c90821680610ac557607f821691505b602082108103610ae557634e487b7160e01b600052602260045260246000fd5b50919050565b8082018082111561032a57634e487b7160e01b600052601160045260246000fdfea2646970667358221220dea8a9a12d7e1b932db05dce38c851f48f7f8705aa96ae7a7bc32110cc9aeef164736f6c63430008140033",
  "linkReferences": {},
  "deployedLinkReferences": {}
}